{
    "_format": "hh-sol-artifact-1",
    "contractName": "DegNA",
    "sourceName": "contracts/DegNA.sol",
    "abi": [
        {
            "inputs": [],
            "stateMutability": "nonpayable",
            "type": "constructor"
        },
        {
            "inputs": [],
            "name": "ApprovalCallerNotOwnerNorApproved",
            "type": "error"
        },
        {
            "inputs": [],
            "name": "ApprovalQueryForNonexistentToken",
            "type": "error"
        },
        {
            "inputs": [],
            "name": "BalanceQueryForZeroAddress",
            "type": "error"
        },
        {
            "inputs": [],
            "name": "MintERC2309QuantityExceedsLimit",
            "type": "error"
        },
        {
            "inputs": [],
            "name": "MintToZeroAddress",
            "type": "error"
        },
        {
            "inputs": [],
            "name": "MintZeroQuantity",
            "type": "error"
        },
        {
            "inputs": [],
            "name": "OwnerQueryForNonexistentToken",
            "type": "error"
        },
        {
            "inputs": [],
            "name": "OwnershipNotInitializedForExtraData",
            "type": "error"
        },
        {
            "inputs": [],
            "name": "TransferCallerNotOwnerNorApproved",
            "type": "error"
        },
        {
            "inputs": [],
            "name": "TransferFromIncorrectOwner",
            "type": "error"
        },
        {
            "inputs": [],
            "name": "TransferToNonERC721ReceiverImplementer",
            "type": "error"
        },
        {
            "inputs": [],
            "name": "TransferToZeroAddress",
            "type": "error"
        },
        {
            "inputs": [],
            "name": "URIQueryForNonexistentToken",
            "type": "error"
        },
        {
            "anonymous": false,
            "inputs": [
                {
                    "indexed": true,
                    "internalType": "address",
                    "name": "owner",
                    "type": "address"
                },
                {
                    "indexed": true,
                    "internalType": "address",
                    "name": "approved",
                    "type": "address"
                },
                {
                    "indexed": true,
                    "internalType": "uint256",
                    "name": "tokenId",
                    "type": "uint256"
                }
            ],
            "name": "Approval",
            "type": "event"
        },
        {
            "anonymous": false,
            "inputs": [
                {
                    "indexed": true,
                    "internalType": "address",
                    "name": "owner",
                    "type": "address"
                },
                {
                    "indexed": true,
                    "internalType": "address",
                    "name": "operator",
                    "type": "address"
                },
                {
                    "indexed": false,
                    "internalType": "bool",
                    "name": "approved",
                    "type": "bool"
                }
            ],
            "name": "ApprovalForAll",
            "type": "event"
        },
        {
            "anonymous": false,
            "inputs": [
                {
                    "indexed": true,
                    "internalType": "uint256",
                    "name": "fromTokenId",
                    "type": "uint256"
                },
                {
                    "indexed": false,
                    "internalType": "uint256",
                    "name": "toTokenId",
                    "type": "uint256"
                },
                {
                    "indexed": true,
                    "internalType": "address",
                    "name": "from",
                    "type": "address"
                },
                {
                    "indexed": true,
                    "internalType": "address",
                    "name": "to",
                    "type": "address"
                }
            ],
            "name": "ConsecutiveTransfer",
            "type": "event"
        },
        {
            "anonymous": false,
            "inputs": [
                {
                    "indexed": true,
                    "internalType": "address",
                    "name": "previousOwner",
                    "type": "address"
                },
                {
                    "indexed": true,
                    "internalType": "address",
                    "name": "newOwner",
                    "type": "address"
                }
            ],
            "name": "OwnershipTransferred",
            "type": "event"
        },
        {
            "anonymous": false,
            "inputs": [
                {
                    "indexed": true,
                    "internalType": "address",
                    "name": "from",
                    "type": "address"
                },
                {
                    "indexed": true,
                    "internalType": "address",
                    "name": "to",
                    "type": "address"
                },
                {
                    "indexed": true,
                    "internalType": "uint256",
                    "name": "tokenId",
                    "type": "uint256"
                }
            ],
            "name": "Transfer",
            "type": "event"
        },
        {
            "inputs": [
                {
                    "internalType": "address",
                    "name": "to",
                    "type": "address"
                },
                {
                    "internalType": "uint256",
                    "name": "tokenId",
                    "type": "uint256"
                }
            ],
            "name": "approve",
            "outputs": [],
            "stateMutability": "payable",
            "type": "function"
        },
        {
            "inputs": [
                {
                    "internalType": "address",
                    "name": "owner",
                    "type": "address"
                }
            ],
            "name": "balanceOf",
            "outputs": [
                {
                    "internalType": "uint256",
                    "name": "",
                    "type": "uint256"
                }
            ],
            "stateMutability": "view",
            "type": "function"
        },
        {
            "inputs": [],
            "name": "baseURI",
            "outputs": [
                {
                    "internalType": "string",
                    "name": "",
                    "type": "string"
                }
            ],
            "stateMutability": "view",
            "type": "function"
        },
        {
            "inputs": [
                {
                    "internalType": "uint256",
                    "name": "tokenId",
                    "type": "uint256"
                }
            ],
            "name": "getApproved",
            "outputs": [
                {
                    "internalType": "address",
                    "name": "",
                    "type": "address"
                }
            ],
            "stateMutability": "view",
            "type": "function"
        },
        {
            "inputs": [
                {
                    "internalType": "address",
                    "name": "owner",
                    "type": "address"
                },
                {
                    "internalType": "address",
                    "name": "operator",
                    "type": "address"
                }
            ],
            "name": "isApprovedForAll",
            "outputs": [
                {
                    "internalType": "bool",
                    "name": "",
                    "type": "bool"
                }
            ],
            "stateMutability": "view",
            "type": "function"
        },
        {
            "inputs": [
                {
                    "internalType": "uint256",
                    "name": "quantity",
                    "type": "uint256"
                }
            ],
            "name": "mint",
            "outputs": [],
            "stateMutability": "payable",
            "type": "function"
        },
        {
            "inputs": [],
            "name": "mintRate",
            "outputs": [
                {
                    "internalType": "uint256",
                    "name": "",
                    "type": "uint256"
                }
            ],
            "stateMutability": "view",
            "type": "function"
        },
        {
            "inputs": [],
            "name": "name",
            "outputs": [
                {
                    "internalType": "string",
                    "name": "",
                    "type": "string"
                }
            ],
            "stateMutability": "view",
            "type": "function"
        },
        {
            "inputs": [],
            "name": "owner",
            "outputs": [
                {
                    "internalType": "address",
                    "name": "",
                    "type": "address"
                }
            ],
            "stateMutability": "view",
            "type": "function"
        },
        {
            "inputs": [
                {
                    "internalType": "uint256",
                    "name": "tokenId",
                    "type": "uint256"
                }
            ],
            "name": "ownerOf",
            "outputs": [
                {
                    "internalType": "address",
                    "name": "",
                    "type": "address"
                }
            ],
            "stateMutability": "view",
            "type": "function"
        },
        {
            "inputs": [],
            "name": "renounceOwnership",
            "outputs": [],
            "stateMutability": "nonpayable",
            "type": "function"
        },
        {
            "inputs": [
                {
                    "internalType": "address",
                    "name": "from",
                    "type": "address"
                },
                {
                    "internalType": "address",
                    "name": "to",
                    "type": "address"
                },
                {
                    "internalType": "uint256",
                    "name": "tokenId",
                    "type": "uint256"
                }
            ],
            "name": "safeTransferFrom",
            "outputs": [],
            "stateMutability": "payable",
            "type": "function"
        },
        {
            "inputs": [
                {
                    "internalType": "address",
                    "name": "from",
                    "type": "address"
                },
                {
                    "internalType": "address",
                    "name": "to",
                    "type": "address"
                },
                {
                    "internalType": "uint256",
                    "name": "tokenId",
                    "type": "uint256"
                },
                {
                    "internalType": "bytes",
                    "name": "_data",
                    "type": "bytes"
                }
            ],
            "name": "safeTransferFrom",
            "outputs": [],
            "stateMutability": "payable",
            "type": "function"
        },
        {
            "inputs": [
                {
                    "internalType": "address",
                    "name": "operator",
                    "type": "address"
                },
                {
                    "internalType": "bool",
                    "name": "approved",
                    "type": "bool"
                }
            ],
            "name": "setApprovalForAll",
            "outputs": [],
            "stateMutability": "nonpayable",
            "type": "function"
        },
        {
            "inputs": [
                {
                    "internalType": "uint256",
                    "name": "_mintRate",
                    "type": "uint256"
                }
            ],
            "name": "setMintRate",
            "outputs": [],
            "stateMutability": "nonpayable",
            "type": "function"
        },
        {
            "inputs": [
                {
                    "internalType": "bytes4",
                    "name": "interfaceId",
                    "type": "bytes4"
                }
            ],
            "name": "supportsInterface",
            "outputs": [
                {
                    "internalType": "bool",
                    "name": "",
                    "type": "bool"
                }
            ],
            "stateMutability": "view",
            "type": "function"
        },
        {
            "inputs": [],
            "name": "symbol",
            "outputs": [
                {
                    "internalType": "string",
                    "name": "",
                    "type": "string"
                }
            ],
            "stateMutability": "view",
            "type": "function"
        },
        {
            "inputs": [
                {
                    "internalType": "uint256",
                    "name": "tokenId",
                    "type": "uint256"
                }
            ],
            "name": "tokenURI",
            "outputs": [
                {
                    "internalType": "string",
                    "name": "",
                    "type": "string"
                }
            ],
            "stateMutability": "view",
            "type": "function"
        },
        {
            "inputs": [],
            "name": "totalSupply",
            "outputs": [
                {
                    "internalType": "uint256",
                    "name": "",
                    "type": "uint256"
                }
            ],
            "stateMutability": "view",
            "type": "function"
        },
        {
            "inputs": [
                {
                    "internalType": "address",
                    "name": "from",
                    "type": "address"
                },
                {
                    "internalType": "address",
                    "name": "to",
                    "type": "address"
                },
                {
                    "internalType": "uint256",
                    "name": "tokenId",
                    "type": "uint256"
                }
            ],
            "name": "transferFrom",
            "outputs": [],
            "stateMutability": "payable",
            "type": "function"
        },
        {
            "inputs": [
                {
                    "internalType": "address",
                    "name": "newOwner",
                    "type": "address"
                }
            ],
            "name": "transferOwnership",
            "outputs": [],
            "stateMutability": "nonpayable",
            "type": "function"
        },
        {
            "inputs": [],
            "name": "withdraw",
            "outputs": [],
            "stateMutability": "nonpayable",
            "type": "function"
        }
    ],
    "bytecode": "0x60806040526028600955633b9aca00600a55604051806060016040528060368152602001620029b460369139600b90816200003b919062000465565b503480156200004957600080fd5b506040518060400160405280600581526020017f4467654e410000000000000000000000000000000000000000000000000000008152506040518060400160405280600381526020017f444e4100000000000000000000000000000000000000000000000000000000008152508160029081620000c7919062000465565b508060039081620000d9919062000465565b50620000ea6200011860201b60201c565b600081905550505062000112620001066200011d60201b60201c565b6200012560201b60201c565b6200054c565b600090565b600033905090565b6000600860009054906101000a900473ffffffffffffffffffffffffffffffffffffffff16905081600860006101000a81548173ffffffffffffffffffffffffffffffffffffffff021916908373ffffffffffffffffffffffffffffffffffffffff1602179055508173ffffffffffffffffffffffffffffffffffffffff168173ffffffffffffffffffffffffffffffffffffffff167f8be0079c531659141344cd1fd0a4f28419497f9722a3daafe3b4186f6b6457e060405160405180910390a35050565b600081519050919050565b7f4e487b7100000000000000000000000000000000000000000000000000000000600052604160045260246000fd5b7f4e487b7100000000000000000000000000000000000000000000000000000000600052602260045260246000fd5b600060028204905060018216806200026d57607f821691505b60208210810362000283576200028262000225565b5b50919050565b60008190508160005260206000209050919050565b60006020601f8301049050919050565b600082821b905092915050565b600060088302620002ed7fffffffffffffffffffffffffffffffffffffffffffffffffffffffffffffffff82620002ae565b620002f98683620002ae565b95508019841693508086168417925050509392505050565b6000819050919050565b6000819050919050565b600062000346620003406200033a8462000311565b6200031b565b62000311565b9050919050565b6000819050919050565b620003628362000325565b6200037a62000371826200034d565b848454620002bb565b825550505050565b600090565b6200039162000382565b6200039e81848462000357565b505050565b5b81811015620003c657620003ba60008262000387565b600181019050620003a4565b5050565b601f8211156200041557620003df8162000289565b620003ea846200029e565b81016020851015620003fa578190505b6200041262000409856200029e565b830182620003a3565b50505b505050565b600082821c905092915050565b60006200043a600019846008026200041a565b1980831691505092915050565b600062000455838362000427565b9150826002028217905092915050565b6200047082620001eb565b67ffffffffffffffff8111156200048c576200048b620001f6565b5b62000498825462000254565b620004a5828285620003ca565b600060209050601f831160018114620004dd5760008415620004c8578287015190505b620004d4858262000447565b86555062000544565b601f198416620004ed8662000289565b60005b828110156200051757848901518255600182019150602085019450602081019050620004f0565b8683101562000537578489015162000533601f89168262000427565b8355505b6001600288020188555050505b505050505050565b612458806200055c6000396000f3fe6080604052600436106101355760003560e01c8063715018a6116100ab578063b88d4fde1161006f578063b88d4fde146103cc578063c87b56dd146103e8578063ca0dcf1614610425578063dbe2193f14610450578063e985e9c514610479578063f2fde38b146104b657610135565b8063715018a61461031a5780638da5cb5b1461033157806395d89b411461035c578063a0712d6814610387578063a22cb465146103a357610135565b806323b872dd116100fd57806323b872dd146102265780633ccfd60b1461024257806342842e0e146102595780636352211e146102755780636c0360eb146102b257806370a08231146102dd57610135565b806301ffc9a71461013a57806306fdde0314610177578063081812fc146101a2578063095ea7b3146101df57806318160ddd146101fb575b600080fd5b34801561014657600080fd5b50610161600480360381019061015c9190611a02565b6104df565b60405161016e9190611a4a565b60405180910390f35b34801561018357600080fd5b5061018c610571565b6040516101999190611af5565b60405180910390f35b3480156101ae57600080fd5b506101c960048036038101906101c49190611b4d565b610603565b6040516101d69190611bbb565b60405180910390f35b6101f960048036038101906101f49190611c02565b610682565b005b34801561020757600080fd5b50610210610692565b60405161021d9190611c51565b60405180910390f35b610240600480360381019061023b9190611c6c565b6106a9565b005b34801561024e57600080fd5b506102576109cb565b005b610273600480360381019061026e9190611c6c565b610a4c565b005b34801561028157600080fd5b5061029c60048036038101906102979190611b4d565b610a6c565b6040516102a99190611bbb565b60405180910390f35b3480156102be57600080fd5b506102c7610a7e565b6040516102d49190611af5565b60405180910390f35b3480156102e957600080fd5b5061030460048036038101906102ff9190611cbf565b610b0c565b6040516103119190611c51565b60405180910390f35b34801561032657600080fd5b5061032f610bc4565b005b34801561033d57600080fd5b50610346610bd8565b6040516103539190611bbb565b60405180910390f35b34801561036857600080fd5b50610371610c02565b60405161037e9190611af5565b60405180910390f35b6103a1600480360381019061039c9190611b4d565b610c94565b005b3480156103af57600080fd5b506103ca60048036038101906103c59190611d18565b610d48565b005b6103e660048036038101906103e19190611e8d565b610e53565b005b3480156103f457600080fd5b5061040f600480360381019061040a9190611b4d565b610ec6565b60405161041c9190611af5565b60405180910390f35b34801561043157600080fd5b5061043a610efd565b6040516104479190611c51565b60405180910390f35b34801561045c57600080fd5b5061047760048036038101906104729190611b4d565b610f03565b005b34801561048557600080fd5b506104a0600480360381019061049b9190611f10565b610f15565b6040516104ad9190611a4a565b60405180910390f35b3480156104c257600080fd5b506104dd60048036038101906104d89190611cbf565b610fa9565b005b60006301ffc9a760e01b827bffffffffffffffffffffffffffffffffffffffffffffffffffffffff1916148061053a57506380ac58cd60e01b827bffffffffffffffffffffffffffffffffffffffffffffffffffffffff1916145b8061056a5750635b5e139f60e01b827bffffffffffffffffffffffffffffffffffffffffffffffffffffffff1916145b9050919050565b60606002805461058090611f7f565b80601f01602080910402602001604051908101604052809291908181526020018280546105ac90611f7f565b80156105f95780601f106105ce576101008083540402835291602001916105f9565b820191906000526020600020905b8154815290600101906020018083116105dc57829003601f168201915b5050505050905090565b600061060e8261102c565b610644576040517fcf4700e400000000000000000000000000000000000000000000000000000000815260040160405180910390fd5b6006600083815260200190815260200160002060000160009054906101000a900473ffffffffffffffffffffffffffffffffffffffff169050919050565b61068e8282600161108b565b5050565b600061069c6111d7565b6001546000540303905090565b60006106b4826111dc565b90508373ffffffffffffffffffffffffffffffffffffffff168173ffffffffffffffffffffffffffffffffffffffff161461071b576040517fa114810000000000000000000000000000000000000000000000000000000000815260040160405180910390fd5b600080610727846112d4565b9150915061073d81876107386112fb565b611303565b610789576107528661074d6112fb565b610f15565b610788576040517f59c896be00000000000000000000000000000000000000000000000000000000815260040160405180910390fd5b5b600073ffffffffffffffffffffffffffffffffffffffff168573ffffffffffffffffffffffffffffffffffffffff16036107ef576040517fea553b3400000000000000000000000000000000000000000000000000000000815260040160405180910390fd5b6107fc8686866001611347565b801561080757600082555b600560008773ffffffffffffffffffffffffffffffffffffffff1673ffffffffffffffffffffffffffffffffffffffff168152602001908152602001600020600081546001900391905081905550600560008673ffffffffffffffffffffffffffffffffffffffff1673ffffffffffffffffffffffffffffffffffffffff16815260200190815260200160002060008154600101919050819055506108d5856108b188888761134d565b7c020000000000000000000000000000000000000000000000000000000017611375565b600460008681526020019081526020016000208190555060007c020000000000000000000000000000000000000000000000000000000084160361095b5760006001850190506000600460008381526020019081526020016000205403610959576000548114610958578360046000838152602001908152602001600020819055505b5b505b838573ffffffffffffffffffffffffffffffffffffffff168773ffffffffffffffffffffffffffffffffffffffff167fddf252ad1be2c89b69c2b068fc378daa952ba7f163c4a11628f55a4df523b3ef60405160405180910390a46109c386868660016113a0565b505050505050565b6109d36113a6565b60003373ffffffffffffffffffffffffffffffffffffffff16476040516109f990611fe1565b60006040518083038185875af1925050503d8060008114610a36576040519150601f19603f3d011682016040523d82523d6000602084013e610a3b565b606091505b5050905080610a4957600080fd5b50565b610a6783838360405180602001604052806000815250610e53565b505050565b6000610a77826111dc565b9050919050565b600b8054610a8b90611f7f565b80601f0160208091040260200160405190810160405280929190818152602001828054610ab790611f7f565b8015610b045780601f10610ad957610100808354040283529160200191610b04565b820191906000526020600020905b815481529060010190602001808311610ae757829003601f168201915b505050505081565b60008073ffffffffffffffffffffffffffffffffffffffff168273ffffffffffffffffffffffffffffffffffffffff1603610b73576040517f8f4eb60400000000000000000000000000000000000000000000000000000000815260040160405180910390fd5b67ffffffffffffffff600560008473ffffffffffffffffffffffffffffffffffffffff1673ffffffffffffffffffffffffffffffffffffffff16815260200190815260200160002054169050919050565b610bcc6113a6565b610bd66000611424565b565b6000600860009054906101000a900473ffffffffffffffffffffffffffffffffffffffff16905090565b606060038054610c1190611f7f565b80601f0160208091040260200160405190810160405280929190818152602001828054610c3d90611f7f565b8015610c8a5780601f10610c5f57610100808354040283529160200191610c8a565b820191906000526020600020905b815481529060010190602001808311610c6d57829003601f168201915b5050505050905090565b60095481610ca0610692565b610caa9190612025565b1115610ceb576040517f08c379a0000000000000000000000000000000000000000000000000000000008152600401610ce2906120a5565b60405180910390fd5b80600a54610cf991906120c5565b341015610d3b576040517f08c379a0000000000000000000000000000000000000000000000000000000008152600401610d3290612153565b60405180910390fd5b610d4533826114ea565b50565b8060076000610d556112fb565b73ffffffffffffffffffffffffffffffffffffffff1673ffffffffffffffffffffffffffffffffffffffff16815260200190815260200160002060008473ffffffffffffffffffffffffffffffffffffffff1673ffffffffffffffffffffffffffffffffffffffff16815260200190815260200160002060006101000a81548160ff0219169083151502179055508173ffffffffffffffffffffffffffffffffffffffff16610e026112fb565b73ffffffffffffffffffffffffffffffffffffffff167f17307eab39ab6107e8899845ad3d59bd9653f200f220920489ca2b5937696c3183604051610e479190611a4a565b60405180910390a35050565b610e5e8484846106a9565b60008373ffffffffffffffffffffffffffffffffffffffff163b14610ec057610e89848484846116a5565b610ebf576040517fd1a57ed600000000000000000000000000000000000000000000000000000000815260040160405180910390fd5b5b50505050565b60606000610ed3836117f5565b905080604051602001610ee691906121fb565b604051602081830303815290604052915050919050565b600a5481565b610f0b6113a6565b80600a8190555050565b6000600760008473ffffffffffffffffffffffffffffffffffffffff1673ffffffffffffffffffffffffffffffffffffffff16815260200190815260200160002060008373ffffffffffffffffffffffffffffffffffffffff1673ffffffffffffffffffffffffffffffffffffffff16815260200190815260200160002060009054906101000a900460ff16905092915050565b610fb16113a6565b600073ffffffffffffffffffffffffffffffffffffffff168173ffffffffffffffffffffffffffffffffffffffff1603611020576040517f08c379a00000000000000000000000000000000000000000000000000000000081526004016110179061228f565b60405180910390fd5b61102981611424565b50565b6000816110376111d7565b11158015611046575060005482105b8015611084575060007c0100000000000000000000000000000000000000000000000000000000600460008581526020019081526020016000205416145b9050919050565b600061109683610a6c565b90508115611121578073ffffffffffffffffffffffffffffffffffffffff166110bd6112fb565b73ffffffffffffffffffffffffffffffffffffffff1614611120576110e9816110e46112fb565b610f15565b61111f576040517fcfb3b94200000000000000000000000000000000000000000000000000000000815260040160405180910390fd5b5b5b836006600085815260200190815260200160002060000160006101000a81548173ffffffffffffffffffffffffffffffffffffffff021916908373ffffffffffffffffffffffffffffffffffffffff160217905550828473ffffffffffffffffffffffffffffffffffffffff168273ffffffffffffffffffffffffffffffffffffffff167f8c5be1e5ebec7d5bd14f71427d1e84f3dd0314c0f7b2291e5b200ac8c7c3b92560405160405180910390a450505050565b600090565b6000816111e76111d7565b1161129d576004600083815260200190815260200160002054905060007c010000000000000000000000000000000000000000000000000000000082160361129c576000810361129757600054821061126c576040517fdf2d9b4200000000000000000000000000000000000000000000000000000000815260040160405180910390fd5b5b6004600083600190039350838152602001908152602001600020549050600081036112cf5761126d565b6112cf565b5b6040517fdf2d9b4200000000000000000000000000000000000000000000000000000000815260040160405180910390fd5b919050565b60008060006006600085815260200190815260200160002090508092508254915050915091565b600033905090565b600073ffffffffffffffffffffffffffffffffffffffff8316925073ffffffffffffffffffffffffffffffffffffffff821691508382148383141790509392505050565b50505050565b60008060e883901c905060e8611364868684611893565b62ffffff16901b9150509392505050565b600073ffffffffffffffffffffffffffffffffffffffff83169250814260a01b178317905092915050565b50505050565b6113ae61189c565b73ffffffffffffffffffffffffffffffffffffffff166113cc610bd8565b73ffffffffffffffffffffffffffffffffffffffff1614611422576040517f08c379a0000000000000000000000000000000000000000000000000000000008152600401611419906122fb565b60405180910390fd5b565b6000600860009054906101000a900473ffffffffffffffffffffffffffffffffffffffff16905081600860006101000a81548173ffffffffffffffffffffffffffffffffffffffff021916908373ffffffffffffffffffffffffffffffffffffffff1602179055508173ffffffffffffffffffffffffffffffffffffffff168173ffffffffffffffffffffffffffffffffffffffff167f8be0079c531659141344cd1fd0a4f28419497f9722a3daafe3b4186f6b6457e060405160405180910390a35050565b6000805490506000820361152a576040517fb562e8dd00000000000000000000000000000000000000000000000000000000815260040160405180910390fd5b6115376000848385611347565b600160406001901b178202600560008573ffffffffffffffffffffffffffffffffffffffff1673ffffffffffffffffffffffffffffffffffffffff168152602001908152602001600020600082825401925050819055506115ae8361159f600086600061134d565b6115a8856118a4565b17611375565b6004600083815260200190815260200160002081905550600080838301905073ffffffffffffffffffffffffffffffffffffffff85169150828260007fddf252ad1be2c89b69c2b068fc378daa952ba7f163c4a11628f55a4df523b3ef600080a4600183015b81811461164f57808360007fddf252ad1be2c89b69c2b068fc378daa952ba7f163c4a11628f55a4df523b3ef600080a4600181019050611614565b506000820361168a576040517f2e07630000000000000000000000000000000000000000000000000000000000815260040160405180910390fd5b8060008190555050506116a060008483856113a0565b505050565b60008373ffffffffffffffffffffffffffffffffffffffff1663150b7a026116cb6112fb565b8786866040518563ffffffff1660e01b81526004016116ed9493929190612370565b6020604051808303816000875af192505050801561172957506040513d601f19601f8201168201806040525081019061172691906123d1565b60015b6117a2573d8060008114611759576040519150601f19603f3d011682016040523d82523d6000602084013e61175e565b606091505b50600081510361179a576040517fd1a57ed600000000000000000000000000000000000000000000000000000000815260040160405180910390fd5b805181602001fd5b63150b7a0260e01b7bffffffffffffffffffffffffffffffffffffffffffffffffffffffff1916817bffffffffffffffffffffffffffffffffffffffffffffffffffffffff191614915050949350505050565b60606118008261102c565b611836576040517fa14c4b5000000000000000000000000000000000000000000000000000000000815260040160405180910390fd5b60006118406118b4565b90506000815103611860576040518060200160405280600081525061188b565b8061186a84611946565b60405160200161187b9291906123fe565b6040516020818303038152906040525b915050919050565b60009392505050565b600033905090565b60006001821460e11b9050919050565b6060600b80546118c390611f7f565b80601f01602080910402602001604051908101604052809291908181526020018280546118ef90611f7f565b801561193c5780601f106119115761010080835404028352916020019161193c565b820191906000526020600020905b81548152906001019060200180831161191f57829003601f168201915b5050505050905090565b606060a060405101806040526020810391506000825281835b60011561198157600184039350600a81066030018453600a810490508061195f575b50828103602084039350808452505050919050565b6000604051905090565b600080fd5b600080fd5b60007fffffffff0000000000000000000000000000000000000000000000000000000082169050919050565b6119df816119aa565b81146119ea57600080fd5b50565b6000813590506119fc816119d6565b92915050565b600060208284031215611a1857611a176119a0565b5b6000611a26848285016119ed565b91505092915050565b60008115159050919050565b611a4481611a2f565b82525050565b6000602082019050611a5f6000830184611a3b565b92915050565b600081519050919050565b600082825260208201905092915050565b60005b83811015611a9f578082015181840152602081019050611a84565b60008484015250505050565b6000601f19601f8301169050919050565b6000611ac782611a65565b611ad18185611a70565b9350611ae1818560208601611a81565b611aea81611aab565b840191505092915050565b60006020820190508181036000830152611b0f8184611abc565b905092915050565b6000819050919050565b611b2a81611b17565b8114611b3557600080fd5b50565b600081359050611b4781611b21565b92915050565b600060208284031215611b6357611b626119a0565b5b6000611b7184828501611b38565b91505092915050565b600073ffffffffffffffffffffffffffffffffffffffff82169050919050565b6000611ba582611b7a565b9050919050565b611bb581611b9a565b82525050565b6000602082019050611bd06000830184611bac565b92915050565b611bdf81611b9a565b8114611bea57600080fd5b50565b600081359050611bfc81611bd6565b92915050565b60008060408385031215611c1957611c186119a0565b5b6000611c2785828601611bed565b9250506020611c3885828601611b38565b9150509250929050565b611c4b81611b17565b82525050565b6000602082019050611c666000830184611c42565b92915050565b600080600060608486031215611c8557611c846119a0565b5b6000611c9386828701611bed565b9350506020611ca486828701611bed565b9250506040611cb586828701611b38565b9150509250925092565b600060208284031215611cd557611cd46119a0565b5b6000611ce384828501611bed565b91505092915050565b611cf581611a2f565b8114611d0057600080fd5b50565b600081359050611d1281611cec565b92915050565b60008060408385031215611d2f57611d2e6119a0565b5b6000611d3d85828601611bed565b9250506020611d4e85828601611d03565b9150509250929050565b600080fd5b600080fd5b7f4e487b7100000000000000000000000000000000000000000000000000000000600052604160045260246000fd5b611d9a82611aab565b810181811067ffffffffffffffff82111715611db957611db8611d62565b5b80604052505050565b6000611dcc611996565b9050611dd88282611d91565b919050565b600067ffffffffffffffff821115611df857611df7611d62565b5b611e0182611aab565b9050602081019050919050565b82818337600083830152505050565b6000611e30611e2b84611ddd565b611dc2565b905082815260208101848484011115611e4c57611e4b611d5d565b5b611e57848285611e0e565b509392505050565b600082601f830112611e7457611e73611d58565b5b8135611e84848260208601611e1d565b91505092915050565b60008060008060808587031215611ea757611ea66119a0565b5b6000611eb587828801611bed565b9450506020611ec687828801611bed565b9350506040611ed787828801611b38565b925050606085013567ffffffffffffffff811115611ef857611ef76119a5565b5b611f0487828801611e5f565b91505092959194509250565b60008060408385031215611f2757611f266119a0565b5b6000611f3585828601611bed565b9250506020611f4685828601611bed565b9150509250929050565b7f4e487b7100000000000000000000000000000000000000000000000000000000600052602260045260246000fd5b60006002820490506001821680611f9757607f821691505b602082108103611faa57611fa9611f50565b5b50919050565b600081905092915050565b50565b6000611fcb600083611fb0565b9150611fd682611fbb565b600082019050919050565b6000611fec82611fbe565b9150819050919050565b7f4e487b7100000000000000000000000000000000000000000000000000000000600052601160045260246000fd5b600061203082611b17565b915061203b83611b17565b925082820190508082111561205357612052611ff6565b5b92915050565b7f4e6f7420656e6f75676820746f6b656e73206c65667400000000000000000000600082015250565b600061208f601683611a70565b915061209a82612059565b602082019050919050565b600060208201905081810360008301526120be81612082565b9050919050565b60006120d082611b17565b91506120db83611b17565b92508282026120e981611b17565b91508282048414831517612100576120ff611ff6565b5b5092915050565b7f4e6f7420656e6f7567682065746865722073656e740000000000000000000000600082015250565b600061213d601583611a70565b915061214882612107565b602082019050919050565b6000602082019050818103600083015261216c81612130565b9050919050565b600081905092915050565b600061218982611a65565b6121938185612173565b93506121a3818560208601611a81565b80840191505092915050565b7f2e6a736f6e000000000000000000000000000000000000000000000000000000600082015250565b60006121e5600583612173565b91506121f0826121af565b600582019050919050565b6000612207828461217e565b9150612212826121d8565b915081905092915050565b7f4f776e61626c653a206e6577206f776e657220697320746865207a65726f206160008201527f6464726573730000000000000000000000000000000000000000000000000000602082015250565b6000612279602683611a70565b91506122848261221d565b604082019050919050565b600060208201905081810360008301526122a88161226c565b9050919050565b7f4f776e61626c653a2063616c6c6572206973206e6f7420746865206f776e6572600082015250565b60006122e5602083611a70565b91506122f0826122af565b602082019050919050565b60006020820190508181036000830152612314816122d8565b9050919050565b600081519050919050565b600082825260208201905092915050565b60006123428261231b565b61234c8185612326565b935061235c818560208601611a81565b61236581611aab565b840191505092915050565b60006080820190506123856000830187611bac565b6123926020830186611bac565b61239f6040830185611c42565b81810360608301526123b18184612337565b905095945050505050565b6000815190506123cb816119d6565b92915050565b6000602082840312156123e7576123e66119a0565b5b60006123f5848285016123bc565b91505092915050565b600061240a828561217e565b9150612416828461217e565b9150819050939250505056fea2646970667358221220ecd9ce167dd02a3012f00ad0abf2a289952439c76833e85803df22343531083864736f6c63430008110033697066733a2f2f516d5343615678736d65393941566571744c6678476d6755747774447132376e4847617170464d5345586a6665522f",
    "linkReferences": {},
    "deployedLinkReferences": {}
}